:020000040800F2
:10000000100C0020A10100086F370008A734000879
:100010006D3700083F090008195D00080000000066
:10002000000000000000000000000000F54700088C
:100030008709000800000000F53700086753000832
:10004000BB010008BB010008BB010008BB010008A0
:10005000BB010008BB010008BB010008BB01000890
:10006000BB010008BB01000889090008BB010008AA
:10007000BB01000841090008BB0100084D09000848
:10008000BB010008BB010008BB010008BB01000860
:10009000BB010008BB010008BB010008BB01000850
:1000A000BB01000845540008BB010008BB01000863
:1000B000515400085D540008BB010008BB01000852
:1000C000BB010008BB010008BB010008BB01000820
:1000D000BB010008715C0008BB010008C55C00089A
:1000E000BB010008A93A0008BB010008BB010008D9
:1000F000BB010008BB010008BB010008BB010008F0
:10010000BB010008BB010008BB010008BB010008DF
:10011000BB010008BB010008BB010008BB010008CF
:10012000BB010008BB010008BB010008BB010008BF
:10013000BB010008BB010008BB010008BB010008AF
:10014000BB010008BB010008BB010008BB0100089F
:10015000BB010008BB010008BB010008BB0100088F
:10016000BB010008BB010008BB010008BB0100087F
:10017000BB010008BB010008BB0100080000000033
:10018000BB010008BB010008DFF810D000F074FBD1
:100190000048004735750008AFF30080100C0020C0
:1001A0000648804706480047FEE7FEE7FEE7FEE711
:1001B000FEE7FEE7FEE7FEE7FEE7FEE70154000884
:1001C000890100082DE9F05F0546002092469B4614
:1001D00088460646814640241BE02846414647465D
:1001E000224600F06EFA53465A46C01A914110D387
:1001F00011461846224600F055FA2D1A67EB010801
:100200004F4622460120002100F04CFA17EB00096E
:100210004E41201EA4F10104DFDC484631462A4647
:10022000434600F000B830BCBDE8C09F40EA01037F
:100230009B0703D009E008C9121F08C0042AFAD29C
:1002400003E011F8013B00F8013B521EF9D2704760
:10025000D2B201E000F8012B491EFBD27047002208
:10026000F6E710B513460A4604461946FFF7F0FFB5
:10027000204610BD30B505462A460B4612F8010B44
:1002800013F8014B08B1A042F8D01CB1002802D0ED
:100290006D1CF1E7284630BD10B5044604E00B782C
:1002A00000F8013B03B1491C521EF8D2204610BD94
:1002B000CAB2401E10F8011F8A4202D00029F9D1AB
:1002C0000020704710B5002200E0521C835C8C5C5B
:1002D000A34201D1002BF8D1D8B2E1B2401A10BD2F
:1002E0002DE9FE4F804681EA0300C00F0C460090C6
:1002F00021F0004123F00045B8EB0200A94105D2EE
:100300004046214690461C460B46024623F00040DC
:10031000104347D0270DC7F30A00C3F30A510290D8
:10032000401A019040286BDAC3F3130040F4801B9D
:100330000098924620B10023D2EB030A63EB0B0B2B
:1003400001985946C0F14002504600F0ABF906460C
:100350000D4650465946019A00F0C3F910EB0800CB
:100360006141002487EA115284EAE7731A4340D0BE
:10037000009A62B3019A012A4FEA075215DC001B6A
:1003800061EB02014FF0004202EA0752CDE9004260
:10039000001C41F5801132462B4600F0C3F903B032
:1003A00000F045B840462146F9E7001B61EB020129
:1003B000001C41F5801300185B412018A2F50017BE
:1003C00047EB030140EAD570B6196D4111E06D08A5
:1003D0004FEA360645EAC0754FEA0752001B61EB4B
:1003E0000201001C41F5801149084FEA3000001954
:1003F000514132462B4603B000F01CB800F083B9DF
:100400000098012240000023D0EB020263EBE0736E
:10041000009821464FEAE074B8EB000061EB04015C
:10042000E9E783F000435BE781F0004158E730BC27
:10043000BDE8C08F30BCBDE8C04FFFF7DFBF2DE97E
:10044000FE4F81EA030404F0004421F000410094CF
:100450004FF0000B23F0004350EA01045ED052EA53
:1004600003045BD0C3F30A54C1F30A552C44A4F22D
:10047000F3340194A0FB0254C1F3130141F4801141
:10048000C3F3130343F4801301FB024400FB034E48
:10049000840A970A44EA815447EA8357A4FB076811
:1004A00002958D0A05FB07854FEA932C04FB0C543B
:1004B0002705029D4FEA065847EA1637B5EB0805AF
:1004C0006EEB070C870E920E47EA811742EA831201
:1004D000A7FB0201B6EB0B0164EB00042B0D43EA12
:1004E0000C335E1844EB1C50DA465146E7FB020120
:1004F000C5F313044FEA0B3343EA14534FEA0432B3
:10050000019C43EA0603A4F10C040294009CCDE98B
:1005100000B400F007F903B000F003B80020014672
:10052000F9E730BCBDE8C08F2DE9F04D81EA030446
:1005300004F0004B21F0004514464FF0000A23F070
:10054000004150EA050220D054EA01021DD0C5F353
:100550000A570246C5F31303C1F31300C1F30A5649
:1005600040F4801543F48013A7EB0608101BD64611
:1005700008F2FD3873EB050002D308F1010801E031
:1005800092185B41B8F1000F03DA00200146BDE884
:10059000F08D00204FF48011064684460EE0171BB4
:1005A00073EB050705D3121B63EB050306434CEA07
:1005B000010C49084FEA300092185B4150EA0107EC
:1005C000EDD152EA030012D082EA040083EA050169
:1005D000084305D0101BAB4106D20122002306E0E0
:1005E00000224FF0004302E06FF0010253101AEBBB
:1005F00006004CEB085110EB0A0041EB0B01BDE883
:10060000F04D00F080B80EB5C10F80EAE0700844EC
:10061000CA07002140F233438DE80E000A460B461C
:1006200000F080F803B000BD0EB540F233410291F6
:100630000021CDE900110A460B4600F073F803B023
:1006400000BDC1F30A5210B5C1F3130140F2FF33EC
:1006500041F480119A4201DA002010BD40F2334388
:100660009A42A2F2334203DC524200F02AF810BD53
:10067000904010BD30B5041E71F1000404DB4FF052
:100680000044404264EB0101141E73F1000405DBD9
:100690001C464FF00043524263EB0403994208BFEB
:1006A000904230BD202A04DB203A00FA02F10020FB
:1006B00070479140C2F1200320FA03F319439040A0
:1006C0007047202A04DB203A21FA02F0002170470B
:1006D00021FA02F3D040C2F12002914008431946AA
:1006E0007047202A06DBCB17203A41FA02F043EA92
:1006F000E07306E041FA02F3D040C2F120029140DB
:1007000008431946704710B5141E73F1000408DA47
:10071000401C41F1000192185B411A4301D120F0C5
:10072000010010BD2DE9F04D92469B4611B1B1FA82
:1007300081F202E0B0FA80F220329046FFF7B2FF79
:1007400004460F4640EA0A0041EA0B0153465A4666
:10075000084313D0114653EA010019D0C8F14002F2
:100760005046FFF7AEFF05460E46504659464246F4
:10077000FFF798FF084305D0012004E020463946E2
:10078000BDE8F08D0020054346EAE0762C43374370
:100790000A986305E40AA0EB08000022FD0A44EA77
:1007A00047540A3002D500200146E9E70105101937
:1007B0006941DDE9084500196941BDE8F04DA2E74E
:1007C00070B521F0004303430CD0C1F30A55002457
:1007D000D5EB040564EB0403D617AD1AB34102DB75
:1007E0000020014670BD201841EB025170BD000091
:1007F0002DE9F041054621F000400C46284309D080
:10080000C4F30A5040F23341884205DD28462146B0
:10081000BDE8F0812846FBE740F2FE31884210DC5B
:100820000CDB4FEA043040EA155050EA053105D0A0
:10083000104804F0004101430020E9E70020014690
:10084000E6E7A0F233404642C6F140022846214680
:10085000FFF728FF07468846284621463246FFF71D
:1008600030FF43463A46FFF74EFF3246BDE8F041BF
:10087000FFF718BF0000F03F064C074D06E0E068A8
:1008800040F0010394E8070098471034AC42F6D3D7
:10089000FFF77EFC287C0008487C00082DE9F04D1D
:1008A00000231A461B1A8A4103DB00200146BDE8DB
:1008B000F08DC1F30A52C1F3130141F480154FF0DA
:1008C000000BD10702D100186D41521E00270446CB
:1008D00040F2FF11384601EB620A3E46804602466E
:1008E00000204FF48011FFF7ECFEC2197141BB18D4
:1008F00046EB0100B4EB030C75EB000C04D3E41AD7
:1009000065EB000517460E46241908F101006D41FC
:1009100080463428E3DDF91946EB0600091BA8419F
:1009200003D24FF0FF32134601E0002213461BEBC7
:10093000070046EB0A51BDE8F04DFFF7E4BEFEE7C5
:10094000014800F073B80000C4070020014800F01F
:100950006DB800007C07002030B590F8444004F0EA
:100960001C050124AC40056C6C60046863608368FE
:10097000102B036803D099600068C26030BD9A6094
:100980000068C16030BD7047102000F04DB970475D
:1009900010B590F825100022022905D00421C1636A
:1009A00080F82420012010BD01680B6823F00E039D
:1009B0000B6001680B6823F001030B6090F8441092
:1009C000046C01F01C03012101FA03F3636080F859
:1009D000251080F82420104610BD10B590F8251081
:1009E0000024022903D00421C16301241AE0016814
:1009F0000A6822F00E020A6001680A6822F0010209
:100A00000A6090F84410036C01F01C02012101FA05
:100A100002F25A6080F82510002180F82410816BC2
:100A200001B18847204610BDC06B7047F0B4016C1F
:100A30000C6801680D6890F8442002F01C0604223E
:100A400002FA06F3234211D06B070FD50B689B0601
:100A500003D40B6823F004030B6090F8441001F0FA
:100A60001C018A40016C4A60016B1DE0022303FAFD
:100A700006F727424FF0000C4FF0010218D0AF07E5
:100A800016D50C68A40605D40C6824F00A040C6082
:100A900080F8252090F8441001F01C018B40016C77
:100AA0004B6080F824C0C16A00291AD0F0BC084706
:100AB0000823B340234214D02B0712D50B6823F030
:100AC0000E030B6090F84410036C01F01C0102FA55
:100AD00001F15960C26380F8252080F824C0416B81
:100AE000E2E7F0BC7047000070B568B12B4C0368BA
:100AF00014212B4AA34209D22A4C1C44B4FBF1F125
:100B00008900C0E910210BE0012070BD234C644234
:100B10001C44B4FBF1F189004164204908390164A7
:100B2000022180F825101C6847F6F0718C43D0E94B
:100B300002152943D0E904563543294385692943E1
:100B4000C5692943056A2943214319608168B1F5C4
:100B5000804F19D0036C0F21934202D152F8A83F65
:100B600002E00E4AA032136890F8444004F01C04DE
:100B7000A1408B43136090F84430416803F01C039C
:100B800099401368194311600021C163012280F864
:100B9000252080F82410084670BD0000080402409B
:100BA00000000240F8FFFDBF70B5044690F8240035
:100BB000002501280CD0012084F8240094F8256039
:100BC0000020012E06D084F824000225284670BD9E
:100BD000022070BD022684F82560E0632068066864
:100BE00026F0010606602046FFF7B6FE206B0028BF
:100BF0002068016802D041F00E0106E021F00401F6
:100C000001602068016841F00A0101602068016804
:100C100041F001010160D9E711B4009818BC02F05D
:100C2000DEB902F0A9B90000044910B50A68024211
:100C300002D00860FFF7F5FF10BD0000140401406A
:100C40002DE9F04FDFF83492002309F1040A012462
:100C500003250AF1040B87B00F270BF1040E04E102
:100C600004FA03F632407CD0D1F804C0BCF1010F85
:100C700008D0BCF1020F05D0BCF1110F02D0BCF1BD
:100C8000120F29D1D0F808C0CDF800C04FEA430CAC
:100C900005FA0CF8CDF80CC0DDF800C02CEA080C01
:100CA000CDF800C0D1F80C80DDF80CC008FA0CF8C3
:100CB000DDF800C048EA0C08C0F80880D0F80480CD
:100CC00091F804C028EA0608CCF3001C0CFA03FCD7
:100CD0004CEA080CC0F804C0D1F804806FEA080C94
:100CE0005FEA8C7C09D1D0F82CC02CEA060CC8F342
:100CF000C0069E4046EA0C06C662D0F80CC04FEA19
:100D0000430805FA08F62CEA060CCDF81480029682
:100D10008E6806FA08F646EA0C06C6604E68022E91
:100D200001D0122E15D1DE0800EB86060396366A36
:100D30004FEA437C4FEADC6807FA08FC26EA0C0617
:100D4000D1F810C00CFA08FC4CEA060C039EC6F859
:100D500020C00668DDF808C026EA0C0691F804C039
:100D600000E081E0DDF814800CF0030C0CFA08FCC4
:100D70004CEA060CC0F800C04E68F60074D5404E30
:100D8000D6F860C04CF0010CC6F860C0366E23F097
:100D9000030C06F0010600963A4E66440296D6F819
:100DA00008C09E074FEA167807FA08F62CEA060CE8
:100DB000B0F1904F04D0344EB04203D101261BE075
:100DC000002619E0314EB04201D1022614E0304E27
:100DD000B04201D103260FE02E4EB04201D10426CD
:100DE0000AE02D4EB04201D1052605E02B4EB0425F
:100DF00001D1062600E0072606FA08F646EA0C06A8
:100E0000DDF808C0CCF80860D9F80060CC46D1F80D
:100E1000048096435FEAC83800D51643CCF80060DA
:100E2000DAF80060D446D1F8048096435FEA883847
:100E300000D51643CCF80060DBF80060DC46D1F842
:100E4000048096435FEAC82800D51643CCF80060BA
:100E5000DEF80060F446D1F8048096435FEA882803
:100E600000D51643CCF800605B1C0A6832FA03F622
:100E70007FF4F6AE07B000F013B8000000040140A4
:100E80000010024000000140000400480008004833
:100E9000000C0048001000480014004800180048EA
:100EA00030BCBDE8C08F0069084000D00120704709
:100EB0000AB1816170478162704700000148806813
:100EC00070470000D0000020024881680278114479
:100ED00081607047D000002010B50024032000F08E
:100EE00055F8002000F007F808B1012401E000F0F7
:100EF00005F8204610BD0020704700000B4808B5DB
:100F0000016E41F001010166016E01F001010091E5
:100F1000816D41F080518165816D01F080510091BA
:100F2000816821F40041816008BD0000001002408A
:100F3000002809DB00F01F020121914040098000D8
:100F400000F1E020C0F8001170470000F0B40E4B33
:100F50001B680C46C3F30223C3F10705042D00D917
:100F60000425191D072901D2002300E0DB1E0126FC
:100F700006FA05F1491E214099409E40761E164012
:100F80003143F0BC04F0F2BE0CED00E0064900F085
:100F9000070208684FF6FF03184040EA0220034AA0
:100FA00010430860704700000CED00E00000FA05F7
:100FB0001649B0F5007F0868C0F3412009D0022827
:100FC00005D0086820F4C06040F48060086000200C
:100FD00070470128FBD0086820F4C06040F400701E
:100FE00008600B483222006850430A4AB0FBF2F016
:100FF000401C00E0401E4A69520501D50028F9D185
:1010000048694005E3D503207047000000700040A8
:10101000DC00002040420F000248006800F4C0607D
:1010200070470000007000400248016841F4807180
:1010300001607047007000402DE9F84F044600271A
:101040000088E54D3E46010504F1200B1DD5606E7C
:1010500078B1B0F5800F11D0B0F5000F04D0B0F525
:10106000400F22D001270FE0E86840F48030E860AC
:101070001BE00021201D02F0BFFB03E000215846C9
:1010800002F050FC070010D03E462088C00426D550
:10109000A06EC0B1B0F1807F1AD0B0F1007F0DD04A
:1010A000B0F1407F19D0012718E0D5F88800616EB3
:1010B00020F440000843C5F88800E6E7E86840F4FB
:1010C0008030E86009E00021201D02F095FB03E07C
:1010D0000021584602F026FC0746F7B13E4620683C
:1010E00080033AD5A86D4FF00008C00009D4A86D60
:1010F00040F08050A865A86D4FF0010800F08050C6
:101100000090DFF8D8A2DAF8001041F48071CAF834
:101110000010FFF7D3FE814610E0D5F88800A16EDD
:1011200020F040700843C5F88800D8E7FFF7C6FEF6
:10113000A0EB0900022801D9032705E0DAF8000036
:10114000C005F3D5002F7CD04FEA0706B8F1000F99
:1011500003D0A86D20F08050A8652078C00707D084
:10116000D5F88800A16B20F003000843C5F888007B
:101170002078800707D5D5F88800E16B20F00C00B7
:101180000843C5F888002078400707D5D5F88800BF
:10119000216C20F030000843C5F888002078000753
:1011A00007D5D5F88800616C20F0C0000843C5F869
:1011B00088002078C00607D5D5F88800A16C20F4F7
:1011C00040700843C5F888002078800607D5D5F818
:1011D0008800E16C20F440600843C5F8880020884E
:1011E000800507D5D5F88800E16D20F4402008433C
:1011F000C5F888002088400507D5D5F88800216EFD
:1012000020F440100843C5F888002078400607D530
:10121000D5F88800216D20F440500843C5F88800B7
:101220002078000607D5D5F88800616D20F440408D
:101230000843C5F888002088C00509D5D5F888007E
:1012400000E01CE0A16D20F440300843C5F88800A0
:1012500020884FF0006780044FF080684FD5D5F8A4
:101260008800E16E20F040600843C5F88800E06E19
:10127000B8423CD1E86840F48010E8603FE0D5F81F
:10128000900010F4407015D0D4F88410814211D031
:10129000D5F89000D5F8901020F4407041F48031DA
:1012A000C5F89010D5F8901021F48031C5F8901051
:1012B000C5F89000C00710D0FFF700FE074641F2C6
:1012C000883906E0FFF7FAFDC11B494501D903261D
:1012D0003CE7D5F890008007F4D5D5F89000D4F815
:1012E000841020F440700843C5F890002EE7404574
:1012F00005D10121201D02F07FFA00B106462068C9
:10130000000317D5D5F88800216F20F0406008430E
:10131000C5F88800206FB84204D1E86840F4801016
:10132000E86007E0404505D10121201D02F064FA84
:1013300000B106462068400317D5D5F88800616FD4
:1013400020F040600843C5F88800606FB84204D1BF
:10135000E86840F48010E86007E0404505D10121CD
:10136000201D02F049FA00B10646208840041AD533
:10137000D5F88800A16F20F040500843C5F88800D8
:10138000A06FB0F1805F03D0B0F1005F05D00AE03C
:101390000221201D02F030FA03E00221584602F03B
:1013A000C1FA00B106462088000407D5D5F88800A8
:1013B000E16F20F080400843C5F888002068C00332
:1013C00007D555F8880FD4F8801020F00040084366
:1013D0002860304600F004B8001002400070004061
:1013E00018BCBDE8E08F00002DE9F0470F4605006E
:1013F00058D0404E306800F00700B84209D230683B
:1014000020F0070038433060306800F00700B84231
:1014100048D12878384CC0072CD06868032811D0F0
:10142000022812D0216898B1490500293ADAA1684A
:1014300021F003010143A160FFF740FD804641F226
:10144000883910E021688901EFE721688903ECE71A
:101450008907EAE7FFF732FDA0EB0801494502D909
:101460000320BDE8F087A068696800F00C00B0EBCD
:10147000810FEFD12878800705D5A068A96820F0F2
:10148000F0000843A060306800F00700B8420BD9B4
:10149000306820F0070038433060306800F0070003
:1014A000B84201D00120DCE72878400705D5A068C4
:1014B000E96820F4E0600843A0602878000706D5BA
:1014C000A068296920F4605040EAC100A06000F0E3
:1014D0003FF8A168094AC1F30311515C01F01F01F3
:1014E000C8400749086007480068BDE8F047FFF7B3
:1014F00002BD000000200240001002404C7B0008AA
:10150000DC000020D40000200548064900688968F6
:10151000054AC1F30221515C01F01F01C840704728
:10152000DC000020001002408C7B000805480649C2
:1015300000688968054AC1F3C221515C01F01F01AE
:10154000C8407047DC000020001002408C7B00087F
:1015500070B52549002318468A68CC6812F00C0241
:1015600004F00306214C4FEA640509D00C2A05D08B
:10157000042A32D0082A00D1284670BD012E10D18D
:101580000B681B0704D4D1F89430C3F3032302E0A3
:101590000B68C3F30313164E56F82330DAB10C2A46
:1015A000EBD1C86800F00300022818D0032818D037
:1015B0001846CA68CB68C2F30212C3F3062343433A
:1015C000521CB3FBF2F2C868C0F34160401C4000FB
:1015D000B2FBF0F070BD184670BD204670BD2046CD
:1015E000E7E72846E5E70000001002400024F40089
:1015F0005C7B00082DE9F84304006FD0FE4DA8681D
:1016000000F00C06E86800F003072078C00664D5F7
:1016100076B10C2E01D1012F0AD0A06900282868CC
:101620007AD040F001002860FFF748FC80465DE07A
:101630002868800702D5A0690028DED0216A2868C2
:10164000000703D5286800F0F00004E0D5F8940006
:10165000F02202EA1010814216D9084602F0E6F99B
:1016600000283BD1286840F0080028602868216ADB
:1016700020F0F000084328606868E16920F47F40AA
:1016800040EA0120686016E0286840F00800286001
:101690002868216A20F0F000084328606868E16942
:1016A00020F47F4040EA0120686026B9206A02F0F9
:1016B000BDF90028D5D1FFF74BFFA968CF4AC1F388
:1016C0000311515C01F01F01C840CD490860CD48AD
:1016D0000068FFF710FC00287ED12EE0CAE000BFB2
:1016E000FFF7ECFBA0EB0800022876D828688007FB
:1016F000F6D5286840F0080028602868216A20F0A4
:10170000F000084328606868E16920F47F4040EAFF
:101710000120686011E0FFE720F001002860FFF77A
:10172000CDFB804606E000BFFFF7C8FBA0EB08003A
:101730000228DAD828688007F6D42078C00740D07D
:10174000082E18D00C2E01D1032F14D06068B0F5EC
:10175000803F17D0B0F5A02F286817D020F4803034
:101760002860286820F4802028606068E0B1FFF7D6
:10177000A5FB804614E02868800322D56068002815
:1017800078D01EE0286840F48030EDE740F48020F7
:101790002860F7E7FFF792FBA0EB08006428A4D8C5
:1017A00028688003F6D50CE0FFF788FB804605E04B
:1017B000FFF784FBA0EB0800642896D82868800314
:1017C000F6D4207880073BD5042E11D00C2E01D101
:1017D000022F0DD0E06801E092E1F1E000282868D6
:1017E0001ED040F480702860FFF768FB07460CE0CD
:1017F000286840050CD5E0680028C1D008E000BF8B
:10180000FFF75CFBC01B022893D828684005F7D57A
:101810006868217C20F0F85040EA016068600FE0C1
:1018200020F480702860FFF749FB074605E000BF01
:10183000FFF744FBC01B0228B1D828684005F7D445
:101840002078000729D560690028D5F8940012D0C7
:1018500040F00100C5F89400FFF730FB074604E0B4
:10186000FFF72CFBC01B022899D8D5F894008007FD
:10187000F6D512E000E120F00100C5F89400FFF772
:101880001DFB074605E000BFFFF718FBC01B022841
:1018900085D8D5F894008007F6D42078400766D51F
:1018A000A86D0027C00008D4A86D40F08050A8653E
:1018B000A86D012700F08050009053480168C905C9
:1018C00012D40168814641F480710160FFF7F6FA95
:1018D000804605E0FFF7F2FAA0EB080002286FD877
:1018E000D9F80000C005F5D5A068012816D0052854
:1018F000D5F8900017D020F00100C5F89000D5F879
:10190000900020F0040000BFC5F89000A06841F2EC
:101910008839C0B1FFF7D2FA80460FE0D5F89000C1
:1019200040F00100F0E740F00400C5F89000F5E752
:10193000FFF7C4FAA0EB0801494541D8D5F890005B
:101940008007F5D50EE0FFF7B9FA804606E000BF44
:10195000FFF7B4FAA0EB0801494531D8D5F890005B
:101960008007F5D41FB1A86D20F08050A865A06A4B
:1019700038B302280AD00C2E7ED0286820F0807060
:101980002860286810F0205F77D0AAE0E868E26A53
:1019900000F0030191422BD1216B00F0700209018C
:1019A0001039914224D1626B00F4FE41B1EB022F59
:1019B0001ED1A26B00F40031072A03D0012202E0FD
:1019C0009DE089E00022914212D1A18F00F4C00273
:1019D00049084905A1F50011914209D194F8401038
:1019E00000F0C06049084906A1F1007181425CD055
:1019F0000C2E41D0286809E0001002404C7B000802
:101A0000DC000020D40000200070004040017ED4A3
:101A10002868C0007BD4286820F080702860FFF719
:101A20004DFA064605E000BFFFF748FA801B022882
:101A300065D828688001F7D4D4E90B016FF00F0254
:101A400002EB01110843A18F5204490802EB4151F6
:101A5000626B41EA0221084394F840104FF07E4245
:101A6000490802EB41610843A16B090940EA414082
:101A7000E968284A114001E049E02EE00843E860A7
:101A8000286840F080702860E86840F08070E86066
:101A9000FFF714FA044604E0FFF710FA001B0228CF
:101AA0002DD828688001F7D52FE0286880012CD434
:101AB000286840F080702860E86840F08070E86036
:101AC000FFF7FCF9044604E0FFF7F8F9001B0228D1
:101AD00015D828688001F7D517E0E86820F00300E2
:101AE000E860E8680C490840E860FFF7E7F9044659
:101AF00008E000BFFFF7E2F9001B022802D903202B
:101B0000BDE8F88328688001F4D40020F8E70120BC
:101B1000F6E700008C809DF9FFFFEEFE704790F81D
:101B2000201001291AD0012180F82010022280F80B
:101B300021200368CA225A62036853225A6202684B
:101B4000936843F0200393600368FF225A6280F891
:101B50002110002180F820100846704702207047AD
:101B600003F044BD10B5144904464FF480200860CA
:101B700020688168C9040BD5C168C90508D5C1684A
:101B800001F0800161F4C071C1602046FFF7E8FFF9
:101B90002068816889040BD5C168890508D5C168AA
:101BA00001F0800161F42071C1602046FFF7B6FFAB
:101BB000012084F8210010BD140401402DE9F047F4
:101BC000044690F82000012823D04FF0010884F843
:101BD0002080022084F821002268CA2050622268F6
:101BE0005320506220680025FF26B1F5807F816870
:101BF0004FF0030A4FF47A790ED021F4007181601E
:101C00002068816821F400518160FFF757F9074689
:101C100025E00220BDE8F08721F480718160206812
:101C2000816821F480518160FFF748F9074604E09C
:101C3000FFF744F9C01B484509D82068C068C007B1
:101C4000F6D010E0FFF73AF9C01B484507D92068E5
:101C5000466284F821A084F820500320DAE7206847
:101C6000C0688007EED52068466284F8218084F839
:101C700020500020CEE7000010B500680B464168F8
:101C80000D480140080CD870C1F304245C7001F0C9
:101C90003F049C70C1F34231197052B901F00EFF3C
:101CA000D870587801F00AFF5870987801F006FF54
:101CB0009870002010BD00003FFFFF0010B50B46DC
:101CC0000168896A596001680969C1F30E01996068
:101CD000006801680D480140C1F305401870C1F368
:101CE00006245C7001F07F049C70890DD97052B994
:101CF00001F0E4FE1870587801F0E0FE5870987812
:101D000001F0DCFE9870002010BD00007F7F7F0096
:101D100010B504004FF0010044D094F8210028B918
:101D2000002084F82000204600F040F8022084F8CB
:101D300021002168CA204862216853204862204659
:101D400001F0D2FE00282DD120688168164A11408A
:101D50008160216888686268A369104322691A4318
:101D6000104388602168E068086120680169228961
:101D700041EA02410161204601F0DAFE002811D15A
:101D80002168CA6C22F00302CA646269E1691143E6
:101D90002268D36C1943D1642268FF21516201216A
:101DA00084F8211010BD0000BFFF8FFF00B5006850
:101DB0001949B3B088422CD1442122A8FEF74FFA2A
:101DC00088216846FEF74BFA0420229000202C90D0
:101DD0000120249022A8FFF70DFC08B1FEF7D7FDE3
:101DE0004FF400300090401221906846FFF724F92C
:101DF00008B1FEF7CCFD094850F8901F41F40041AE
:101E00000160002211462920FFF7A0F82920FFF7E2
:101E10008FF833B000BD00000028004000100240E1
:101E20002DE9F05F044690F820000B46012844D0CD
:101E3000012084F82000022084F821002068002678
:101E400080684FEA4060BAB3002800DBDE70987803
:101E50001978DA7840EA01405978090241EA82515A
:101E6000084393F8241040EA0165186A5F68054347
:101E7000586921680543D8690743CA204862216828
:101E800053204862986A4FF0FF08B0F5807F2068C1
:101E90004FF0030B4FF47A7A81682BD021F4007154
:101EA00081602068C16801F0800161F42071C16027
:101EB000FFF704F8814652E002E0022000F078B813
:101EC000002800DBDE70187801F001FE0504587868
:101ED00001F0FDFD45EA0025987801F0F8FD054385
:101EE000D87845EA805593F8240001F0F0FD45EAE2
:101EF0000065BAE721F4807181602068C16801F053
:101F0000800161F4C071C160FEF7D8FF814605E031
:101F1000FEF7D4FFA0EB0900504517D82068C06831
:101F2000C007F5D02068C5612068476420688168D3
:101F300041F4807181602068816841F480511FE024
:101F4000FEF7BCFFA0EB0900504508D92168C1F895
:101F5000248084F821B084F820600320AEE7206854
:101F6000C0688007ECD52068056220688764206817
:101F7000816841F4007181602068816841F40051FA
:101F800081600A48016841F48021016007480830F7
:101F9000016841F4802101602168C1F8248001209A
:101FA00084F8210084F82060002087E700040140C5
:101FB00030BCBDE8C09F000070B5044690F820001A
:101FC0000B4601281BD0012684F82060022084F8EB
:101FD0002100B2B19878D97840EA0145587819784B
:101FE000000240EA413005432168CA204862216866
:101FF00053204862204601F077FDD0B120E0022056
:1020000070BD5878C10603D500F0EF000A30587053
:10201000D87801F05CFD0504587801F058FD45EAD8
:102020000025987801F053FD0543187845EA4035BE
:10203000DAE70848054020684560204601F078FD51
:102040002268FF21516208B984F82160002184F8D8
:10205000201070BD3FFFFF002DE9F041044690F8CD
:10206000200090460D46012811D0012784F82070E9
:10207000022084F821002168CA2048622168532088
:102080004862204601F030FD002618B129E0022008
:10209000BDE8F0812068B8F1000F80684FEA406029
:1020A00024D0002800DBEE70A8782978EA7840EA8E
:1020B00001406978090241EA825108431849084001
:1020C000216808602068816821F480218160D5E959
:1020D0000301084321688A6810438860204601F0A4
:1020E00027FD2268FF215162A0B115E0002800DB26
:1020F000EE70287801F0EBFC0304687801F0E7FC4F
:1021000043EA0023A87801F0E2FC0343E87843EABD
:102110008050D3E784F8217084F82060B8E700008D
:102120007F7F7F0070B504460068C16821F0A00180
:10213000C160FEF7C3FE05464FF47A7607E000BFA4
:10214000FEF7BCFE401BB04201D9032070BD2068E1
:10215000C0688006F4D5002070BD70B5040009D0B9
:10216000606A002540B125616561A56294F85D0053
:1021700040B10CE0012070BD6068B0F5827FF4D002
:10218000E561F2E784F85C50204600F057F8022041
:1021900084F85D002068016821F040010160E16879
:1021A0004FF4E062914201D9002001E04FF48050E9
:1021B000B1F5706F02D0914200D0A562A18822894A
:1021C00001F4827102F404421143227C02F0020203
:1021D0001143227D02F001021143228B02F40072AE
:1021E0001143227F02F03802114394F8202002F0BC
:1021F00080021143228D02F40052114322681160C3
:10220000A169042202EA114194F8242000F48050CC
:1022100002F01002114394F8342002F00802114336
:10222000A28902F47062114301432068416025666F
:10223000012084F85D00002070BD000010B586B05C
:10224000044614216846FEF70AF8134920688842BC
:102250001FD11248016E41F480510166016E01F4F4
:1022600080510591C16C41F00101C164C06C6946A7
:1022700000F001000590E020009002200190002075
:10228000029003200390052004904FF09040FEF749
:10229000D7FC06B010BD0000003001400010024025
:1022A0002DE9F05F044690F85C0000270A9E1D4669
:1022B00092468B464FF0010901280ED0012084F888
:1022C0005C00FEF7FBFD804694F85D006168012824
:1022D0000CD0B1F5827F07D102E0022000F011B9E5
:1022E000A16809B9042801D0022700E1BBF1000F61
:1022F00024D0BAF1000F21D005B394F85D00042872
:1023000002D0052084F85D0000202066C4F840A0BB
:10231000A4F84650A4F84450C4F838B0E587A5871F
:10232000E0642065E0684FF4E061884201D8012D47
:1023300006D92068426822F4805205E00127D6E0E1
:102340002068426842F48052426020680268520667
:1023500003D4026842F040020260E068884260688C
:1023600045D908B1012D3AD1A06B21680088C86019
:10237000A06B801CA063E08F401EE0872FE02068E8
:10238000816889070FD5E18F69B1B9F1010F0AD1D1
:10239000A16B0988C160A06B801CA063E08F401E08
:1023A000E0874FF0000920688168C9070FD0B4F8B2
:1023B000461061B1C068216C0880206C801C2064CC
:1023C000B4F84600401EA4F846004FF00109FEF79D
:1023D00075FDA0EB0800B04201D3701C75D1E08FF1
:1023E0000028CCD1B4F846000028C8D176E008B166
:1023F000012D6CD1E08F0128A06B08D921680088DD
:10240000C860A06B801CA063E08F801E07E021687D
:1024100000780873A06B401CA063E08F401EE0872B
:1024200055E02068816889071AD5E18FC1B1B9F1FB
:10243000010F15D1E18F0129A16B07D90988C1606E
:10244000A06B801CA063E08F801E06E009780173FA
:10245000A06B401CA063E08F401EE0874FF0000996
:1024600020688168C90728D0B4F8461029B3B4F8A9
:102470004610012914D9C068216C0880206C801C8A
:102480002064B4F84600801EA4F84600B4F8460064
:10249000012810D82068416841F4805141600AE069
:1024A000007B216C0870206C401C2064B4F846004E
:1024B000401EA4F846004FF00109FEF7FFFCA0EB18
:1024C0000800B04202D3701C01D018E0BEB1E08F0A
:1024D0000028A6D1B4F846000028A2D142463146D1
:1024E000204602F09FF810B101272020206601202D
:1024F00084F85D00002084F85C003846EEE603278F
:10250000F5E730BCBDE8C09F7047704770470000DA
:10251000F0B590F83C20012A39D0012480F83C40E5
:10252000022280F83D20026853689568194E1A4FC0
:10253000B24201D0BA4204D123F4700C4B6843EA92
:102540000C0323F0700C0B6843EA0C035360026821
:10255000B24210D0B2F1804F0DD0104B9A420AD047
:102560000F4B9A4207D00F4B9A4204D0BA4202D086
:102570000D4B9A4204D1896825F08003194391607C
:1025800080F83D40002180F83C100846F0BD022054
:10259000F0BD0000002C0140003401400004004068
:1025A00000080040000C00400040014010B504004D
:1025B00003D094F83D0010B107E0012010BD0020C9
:1025C00084F83C00204600F023F8022084F83D0007
:1025D000211D206802F048FF012084F8480084F89B
:1025E0003E0084F83F0084F8400084F8410084F8FD
:1025F000420084F8430084F8440084F8450084F8DD
:10260000460084F8470084F83D00002010BD00001B
:1026100008B51E4A01681E4891420ED1016E41F470
:1026200000610166006E002200F400600090114617
:102630001920FEF78BFC192013E0B1F1804F14D064
:10264000144A914220D1816D41F002018165806D73
:10265000002200F00200009011461D20FEF776FCDB
:102660001D20BDE80840FEF763BC816D41F001010B
:102670008165806D002200F00100009011461C2051
:10268000FEF764FC1C20ECE708BD0000002C0140B4
:10269000001002400004004090F83D10012901D0D4
:1026A00001207047022180F83D100168CA6842F09D
:1026B0000102CA6000681149884211D0B0F1804F10
:1026C0000ED00F4988420BD00E49884208D00E49DF
:1026D000884205D00D49884202D00D49884207D171
:1026E00081680C4A1140062906D0B1F5803F03D01D
:1026F000016841F00101016000207047002C014099
:102700000004004000080040000C0040003401407C
:1027100000400140070001000168CA6822F0010280
:10272000CA6001680A6A41F211131A4207D10A6AA3
:102730009B101A4203D10A6822F001020A600121AB
:1027400080F83D100020704770B5044690F83C00BA
:10275000012817D0012584F83C50022084F83D0060
:10276000226890682E4B184020F47F4090600868E3
:10277000502830D00DDC20284DD005DC98B310282F
:102780003BD148E0022070BD302844D0402834D1ED
:1027900039E0602828D0702806D0B0F5805F2CD0B2
:1027A000B0F5005F29D10AE0CB68D1E901212068AA
:1027B00002F0BAFE2068816841F0770109E0CB6839
:1027C000D1E90121206802F0AFFE2068816841F460
:1027D0008041816011E0CA684968206802F0B6FE55
:1027E0005021206807E016E0CA684968206802F0B6
:1027F000BEFE6021206802F0A1FE84F83D5000205A
:1028000084F83C0070BDCA684968206802F09EFEEA
:1028100040212068EFE7226801461046EBE7000000
:1028200088FFFEFF704770B50446006801694FF0ED
:102830000005C943890715D4C168C943890711D464
:10284000E91E016101202077206880698007204609
:1028500002D0FFF7E7FF04E000F0A7F8204600F001
:10286000A5F8257720680169C943490717D4C168CD
:10287000C943490713D46FF0040101610220207796
:102880002068806910F4407F204602D0FFF7CAFF1D
:1028900004E000F08AF8204600F088F825772068E8
:1028A0000169C943090716D4C168C943090712D48D
:1028B0006FF008010161042020772068C06980075B
:1028C000204602D0FFF7AEFF04E000F06EF820468D
:1028D00000F06CF8257720680169C943C90617D450
:1028E000C168C943C90613D46FF010010161082003
:1028F00020772068C06910F4407F204602D0FFF79F
:1029000091FF04E000F051F8204600F04FF82577E1
:1029100020680169C943C90708D1C168C943C9070B
:1029200004D1891E0161204600F042F82068016947
:10293000C943090609D4C168C943090605D46FF023
:10294000800101612046FFF7E0FD20680169C9436D
:10295000C90509D4C168C943090605D46FF480715B
:1029600001612046FFF7D0FD20680169C94349068F
:1029700009D4C168C943490605D46FF0400101611B
:10298000204600F03FF820680169C94389060BD44E
:10299000C168C943890607D46FF020010161204650
:1029A000BDE87040FFF7B2BD70BD704770470000D2
:1029B00030B410490068104A0C6801210B1FA04276
:1029C00003D1117023610B480EE00C4C2468A04227
:1029D00003D151702361094806E0094C2468A042E4
:1029E00005D191702361064830BCFFF795BE30BC1D
:1029F0007047000098050020C8000020E405002072
:102A0000300600207047704770B5416F0446856FEF
:102A1000006882684FF01006120612D5212910D1E5
:102A2000816821F080018160A06E38B1FDF7B0FFB0
:102A300020B1A06EFDF7F8FF20281BD0204602F041
:102A400097FF20688168490612D5222D10D1816830
:102A500021F040018160E06E38B1FDF799FF20B1AF
:102A6000E06EFDF7E1FF202804D0204602F071FF60
:102A7000002070BDE667032070BD70472DE9F0416E
:102A800002680446D0691168936840F60F05284231
:102A90004FF0000505D186067BD58E0679D5216ECF
:102AA00088E04D4F03F001060F40374371D0C70750
:102AB00007D0CF0505D501271762E26F42F001026A
:102AC000E267820708D5DA0706D0276802223A6251
:102AD000E26F42F00402E267420708D5DA0706D047
:102AE000236804221A62E26F42F00202E2670207E0
:102AF0000AD501F02002324306D0236808221A6268
:102B0000E26F42F00802E267020509D54A0107D5E3
:102B100023684FF400621A62E26F42F02002E2671B
:102B2000E26F002A2ED0800605D5880603D5216ED7
:102B300009B120468847E06F21688968490602D4B8
:102B400010F0280F20D0204602F003FF2068816893
:102B5000490614D5816821F040018160E06E70B1B2
:102B60001E498163E06EFDF738FF00280AD0E06E51
:102B7000816B00E02046BDE8F041084709E02046AF
:102B8000FFF77BFFBDE8F0812046FFF776FFE567A2
:102B9000F8E7C60209D55B0207D54FF48010106232
:102BA0002046BDE8F041FFF72EBF030605D50B0612
:102BB00003D5616E0029DDD1E4E74006E2D5480681
:102BC000E0D51168204621F04001116020216167A5
:102BD000656600F07AF9D5E720010004B1580008D5
:102BE00010B5040002D0606F10B107E0012010BDE5
:102BF000002084F87000204600F026F8242060674A
:102C00002068016821F001010160204602F0B8FE51
:102C10000128ECD0606A10B1204602F0B9FD2068AE
:102C2000416821F4904141602068816821F02A01C7
:102C300081602068016841F0010101602046BDE823
:102C4000104002F009BE00002DE9F04387B00646AF
:102C500014216846FDF703FB3E4D336800243E48CF
:102C60000227032107224FF080084FF02009AB42D2
:102C700033D1036E43F480430366036E03F4804351
:102C80000593C36C43F00203C364C06C029400F06C
:102C900002000590CDE90312C020CDE90007694686
:102CA0002E48FDF7CDFF2F4D2D482860C5E9017452
:102CB000C5E903486C61C5E9064928462C62FDF761
:102CC00013FF08B1FDF763FEF566002211462520CB
:102CD000AE62FEF73BF9252037E0234DAB4236D1FB
:102CE000836D43F480238365836D03F48023059310
:102CF000C36C43F00403C364C06C029400F004008E
:102D00000590CDE903124FF44060CDE90007694614
:102D10001648FDF795FF1248154D28382860C5E97B
:102D20000174C5E903486C61C5E9064928462C626F
:102D3000FDF7DAFE08B1FDF72AFEF566002211461E
:102D40002720AE62FEF702F92720FEF7F1F807B060
:102D5000BDE8F08300380140001002400004004844
:102D6000580002407C07002000480040000800484E
:102D7000C407002070B50446806F20283FD149B3B6
:102D800042B394F87000012839D0012084F8700013
:102D90006165A4F858200025E5672220A067E06E51
:102DA000D0B11849C162E16E174813460863E16E5D
:102DB00016484863E06E8563666D216832462431AB
:102DC000E06EFDF7F1FE38B11020E06784F8705036
:102DD00020206067012070BD84F870502068016871
:102DE00041F4807101602068816841F001018160D7
:102DF0002068816841F040018160002070BD0220A0
:102E000070BD00000D59000849590008C558000858
:102E1000704770472DE9F8430446406F1F46164639
:102E20000D4620284FD1CDB1C6B194F870000128CD
:102E300049D0012084F870004FF00008C4F87C806D
:102E400021206067FEF73AF8A4F850608146A4F8A4
:102E50005260A068B0F5805F03D004E00120BDE8B7
:102E6000F883206928B12E465FF0000584F8708051
:102E700010E00026FAE78021204602F0A7FEB8B94C
:102E8000C6B116F8010B21680885B4F85200401E3F
:102E9000A4F85200B4F852004B464FF000020097DD
:102EA0000028E8D14FF04001204602F08FFE30B1FB
:102EB0000320D4E735F8020BC0F30800E3E7202035
:102EC00060670020CBE70220C9E770470146002079
:102ED0000A0A00D008204FF2F002114201D040F05F
:102EE00004004CF6CC42114201D040F002004AF6F8
:102EF000AA22114201D040F00100704718B41C4BC7
:102F0000B0F1904F10D01B4C041915D0B4F5806F60
:102F10001FD0B4F5006FDC6C23D044F08004DC6477
:102F2000DB6C03F080030EE0DC6C44F00104DC6435
:102F3000DB6C03F0010306E0DC6C44F00204DC64AB
:102F4000DB6C03F002030093116018BC1146FDF71F
:102F500077BEDC6C44F00404DC64DB6C03F0040337
:102F6000F1E744F00804DC64DB6C03F00803EAE7F3
:102F70000010024000FCFFB710B5FFF7A7FF05499E
:102F800051F82010002903D0BDE810400020084768
:102F900010BD0000E8000020FDF785BF70B51C469D
:102FA00015460E460846FFF791FF0A4974B141F8ED
:102FB0002040304600F09CFA044600222946FDF7E6
:102FC000C5FF2046BDE87040FDF7B2BF002241F8C2
:102FD000202070BDE8000020D2B2FDF769BF70B5B7
:102FE000410EC0017D220023FDF7ECF8054600F0FC
:102FF0007DF8044600E000BF00F078F8001BA8420E
:10300000F9D370BD2DE9F04105460C460022274852
:10301000FEF754FE264FB86A002286B2294623489E
:10302000FEF72AFE002221462048FEF747FEB86A36
:1030300080B2B042EFD1E87840F2B55110FB01F117
:10304000C91C8A0880072ED01A486B7803EB43010D
:10305000C1EB83115B009B1ED8403C3900F003009C
:1030600001EBD171C0EB61001044A978401E084407
:103070001149227848436178C2EB4213C1EB011138
:103080008900C3EB022201EB0211A278104408442C
:10309000810D83026068A0F2FF304042181841F1B0
:1030A0000001BDE8F0810548CFE70000740500206D
:1030B00000280040A0AA990080510100505544000A
:1030C0000320704701480068704700008803002013
:1030D00000B587B0694605A8FFF794FF0249096863
:1030E00007B0401A00BD00008803002000B587B07B
:1030F000694605A8FFF786FF07B000BD10B5084C6C
:10310000207800280AD100F051F84FF4807105486A
:10311000FEF754FD00F07CF80120207010BD000087
:10312000BC0000207405002010B50E4C00210420C6
:1031300000F0CCF90C494FF48020086021688868C1
:10314000C0040DD5C868C0050AD5C86800F0800065
:1031500060F4C070C8602046BDE81040FEF700BDB6
:1031600010BD0000740500201404014070B5044631
:10317000FFF7AEFF0C4D211AB5F90200C01C8142C9
:1031800001D9002100E00121042000F09FF900F0A6
:103190008BF9012802D1B5F90200241A2046BDE8B6
:1031A000704000F041B80000BC00002010B5174886
:1031B00086B015490024C0E900141F21816040F247
:1031C000FF31C0E903148461C461FEF7A1FD8DF8ED
:1031D000174001208DF815008DF816008DF81400A9
:1031E000002205A90948FEF7E7FE00940194049423
:1031F0000022694605480394FEF72EFF0348FEF7B8
:103200008EFC06B010BD00000028004074050020B0
:1032100010B5044C211D04F11800FFF7F3FE2060E7
:1032200010BD00008803002070B586B0054614224A
:1032300041496846FCF7FAFF3F483038446C00F0DB
:1032400083F80198C5F30901A0F2FF304042084419
:103250003A4A86B2AB0AC4F30740514202E0401C2E
:10326000134480B28B42FAD29DF800204FF4616182
:1032700003E0521C92B2A3F561638B42F9D29DF830
:10328000011002E0491C89B23C3B3C2BFAD29DF86C
:1032900002502B449DB24FF4806304E0A6F5806693
:1032A0006D1CB6B2ADB29E42F8D203E03C3D491C63
:1032B000ADB289B23C2DF9D203E03C39521C89B23F
:1032C00092B23C29F9D203E0183A401C92B280B283
:1032D000182AF9D2230E9B07C4F3072428D0184BD1
:1032E0005B1EE35C834203D2B0FBF3F403FB1400E8
:1032F000114BA6F2FF36303B74425C604FF0206405
:10330000DC619D7059701A7083F824009DF80300E9
:10331000D8700020186258614FF48071D8609962AB
:103320000246186119460748FEF77AFD06B070BDDF
:10333000034B0C33D4E700008C03002080AEFEFF6B
:10334000347B00087405002010B54FF480710848E4
:10335000FEF734FC06480068C16801F0800161F4A2
:10336000C071C16003494FF48020086010BD0000A7
:103370007405002014040140810A4FF47A72C0F3EE
:103380000900514310FB02F001EB9020704710B58B
:10339000410EC0017D220023FCF714FF10BD000088
:1033A00001B582B04FF0FF300090012301AA02A9BD
:1033B0000248FEF775FFBDF804000EBDA80200200C
:1033C00008B51D481B491E4A01601C4B00211268AC
:1033D00003E05208491C072901D29A42F9D8302249
:1033E00002EAC102C90700D008210A43C2610021D4
:1033F0004FF48272C0E90121016141614FF4E06242
:103400008162C26001624FF40072826141620D48C4
:10341000016E41F480510166006E00F4805000900E
:103420000548FEF79AFE08B1FDF7B1FABDE808407D
:1034300000F00AB800300140A802002080969800F1
:10344000DC0000200010024030B585B01421684631
:10345000FCF705FF02200024CDE9010403200390BE
:1034600005204FF0904504906A4620212846FFF73A
:1034700045FD6A4640212846FFF740FD6A46802107
:103480002846FFF73BFD0120CDE9010404026A460E
:1034900021462846FFF732FD012221462846FFF744
:1034A0009BFD05B030BDFEE7EFF3108172B6064814
:1034B00002680AB1002004E0406808B1012000E081
:1034C000022081F3108870470000002010B5EFF350
:1034D000108272B6054C236819B1012903D1034348
:1034E00000E08343236082F3108810BD00000020B9
:1034F000802826D010DC08281FD006DC012816D032
:10350000022816D0042810D115E0102817D0202842
:1035100017D0402809D114E0B0F5805F05DAB0F586
:10352000807F0ED0B0F5007F0BD02820704706209A
:1035300070470720704708207047092070470A200D
:10354000704717207047000030B587B014216846D7
:10355000FCF785FE2B48C16C41F00401C164C16CCD
:1035600001F004010591C16C41F08001C164C16C9E
:1035700001F080010591C16C41F00101C164C16C91
:1035800001F001010591C16C41F00201C164C06C00
:103590004FF0904500F002000590012240F2011129
:1035A0002846FDF785FC00224FF400712846FDF700
:1035B0007FFC40F20130009001200024CDE901049D
:1035C000694628460394FDF73BFB0820CDE900043B
:1035D0000D4D694628460294FDF732FB10200090FD
:1035E0000A48CDE9010469462846FDF729FB002277
:1035F00011460A20FDF7AAFC0A20FDF799FC07B046
:1036000030BD00000010024000040048000011100E
:1036100010B588B0002413480594069403940494CC
:10362000009401940E490294016041F63F71C0E993
:1036300001147721C0E9031444618461FEF7B6FFE9
:103640004FF48050039003A90648FFF77DF80094DB
:103650000194694603480294FEF75AFF08B010BD72
:10366000002C01409805002010B588B000241248B5
:103670000094019402940394049405944FF08041C3
:103680000694016041F63F71C0E9011441F297715F
:10369000C0E903148461FEF789FF4FF48050009065
:1036A00069460548FFF750F8049404A902480694B7
:1036B000FEF72EFF08B010BDE405002010B588B05D
:1036C00000241348009401940294039404940594F4
:1036D0000E490694016041F63F71C0E9011441F2C0
:1036E0008731C0E903148461FEF760FF4FF4805016
:1036F000009069460648FFF727F8049404A9044897
:103700000694FEF705FF08B010BD0000000400405D
:10371000300600200948084901604FF4E13141605A
:10372000002181600C22C160C0E904128161C16185
:1037300001624162FFF754BA003801407C06002064
:103740000948084901604FF4E1314160002181607E
:103750000C22C160C0E904128161C1610162416251
:10376000FFF73EBA00480040FC060020FEE7704725
:103770002DE9F04107460C481E461546406B0C46A5
:1037800080472246094C394604F1A600A4F8A4203B
:10379000FCF74CFD84F82A5184F82B61012084F851
:1037A000B101BDE8F08100000C7A0008C0030020E0
:1037B0000148406B004700000C7A0008054890F86B
:1037C00020100548042901D0406B0047C16B002040
:1037D00008470000C00300200C7A00080148406B35
:1037E000004700000C7A00080148406B00470000C9
:1037F0000C7A0008704700002DE9F041444C054662
:103800008846E0680026810728680DD0E16801F04D
:103810000301814216D1A8B1E0686968C0F30210C3
:10382000401C88420ED120E0012804D0022805D097
:10383000032807D108E02168890701E021684905CC
:10384000002907DB01265FE02168890302D4216893
:103850004903F5E7E1686A686FF00F0321F073012F
:1038600003EB021211430143E160206820F0806005
:103870002060FDF723FB074605E000BFFDF71EFBB8
:10388000C01B022837D820680001F7D4B8F1000F18
:1038900018D0B8F1010F1ED0287D4FF07E414008AE
:1038A00001EB4060A96840EA01202169194A1140F2
:1038B00008432061206840F080602060FDF7FEFA38
:1038C00007461AE0A868E9680002090940EA414091
:1038D0002169114AEBE7288A1049400801EB405062
:1038E000A96840EA012021690D4AE0E7FDF7E6FA00
:1038F000C01B022801D9032606E020680001F5D587
:103900002069A969084320613046BDE8F0810000C4
:1039100000100240FF80FFF9FF80FDFF0000E0FF84
:10392000FF809FFF2DE9F0413D4C06468846E06848
:103930000025810730680DD0E16801F00301814264
:1039400016D1A8B1E0687168C0F30210401C88422B
:103950000ED120E0012804D0022805D0032807D189
:1039600008E02168890701E021684905002907DB93
:10397000012551E02168890302D421684903F5E754
:10398000E16872686FF00F0321F0730103EB02121C
:1039900011430143E160206820F080502060FDF772
:1039A0008DFA074605E000BFFDF788FAC01B022824
:1039B00029D820688000F7D4B8F1000F15D0307CEA
:1039C0004FF07E41400801EB4060B16840EA0120C1
:1039D0006169144A114008436061206840F08050DA
:1039E0002060FDF76BFA07460FE0B068F16800024F
:1039F000090940EA414061690B4AEBE7FDF75EFACD
:103A0000C01B022801D9032506E020688000F5D5F7
:103A100060697169084360612846BDE8F081000073
:103A200000100240FF80FFF9FF80FDFFF8B51C4D3C
:103A300006460024A86DC00002D5FDF7EDFA0DE0A2
:103A4000A86D40F08050A865A86D00F080500090EF
:103A5000FDF7E2FAA96D21F08051A965B0F5007F6C
:103A600004D0802E07D94FF003040AE0802E08D935
:103A7000A02E01D804E001D1022402E0702E00D172
:103A800001240848016821F0070121430160006812
:103A900000F00700A04201D00120F8BD0020F8BDD1
:103AA000001002400020024010B5FFF73DFBBDE8CA
:103AB00010400148FEF756B874050020010901EBDB
:103AC000810100F00F0000EB4100C0B270470022FE
:103AD000014602E00A39C9B2521C0A29FAD210077B
:103AE00041EA1060704700002DE9F041044600688B
:103AF0000025C168490617D4691EC160FDF7DEF9CB
:103B000006464FF47A78032708E000BFFDF7D6F9A0
:103B1000801B404502D9032584F821702068C068C5
:103B2000400601D4032DF1D12846BDE8F081000004
:103B30002DE9F041064613480025016821F0800177
:103B40000160041F20684FF00307800607D4304649
:103B5000FEF7E8FA90B186F8217003250EE02068A0
:103B600020F0200020603046FEF7DCFA10B186F825
:103B700021700325206840F0200020602846BDE821
:103B8000F08100000C2800400120704778B10B4AFA
:103B9000002100BF52F8313083420AD802EBC10342
:103BA0009B68834205D902EBC100007B70471F2050
:103BB0007047491CC9B21529ECD3FEE7847A000886
:103BC00010B500F0AFFE042805D0052805D0072861
:103BD00005D0002010BD022010BD012010BD032023
:103BE00010BD10B500F092FEC01C10BD10B5144CF5
:103BF0002061144800F01CFF002001F087FA01202A
:103C000001F0C7F90021084601F03DF80421002029
:103C100001F0BBFA00234FF6FF701A46014601F08F
:103C20008BF80949094801F0CBFC084808491830CD
:103C300001F0C6FC0020A07000F068FEC01C10BDA2
:103C400010000020313E0008593E00087802002094
:103C5000413E0008F8B55C4CA07800287CD0EFF31A
:103C6000108072B60021A17080F3108800F050FE21
:103C700005464FF6FF7000F03DFEE8070DD05348B3
:103C800001F056FD012001F0F9F8206928B1006823
:103C900018B18047002000F0BEFDA80731D54B4881
:103CA000183001F045FD607888B9012001F0E6F890
:103CB000002140F6021001F025FB40F64416304684
:103CC00000F073FF40F00201304601F01BFBFF22C1
:103CD00069463F4800F06AFE3D48143800F028FE6F
:103CE000206970B1866866B139489DF800101438B3
:103CF00090F90D3090F90C201430B047002000F0FE
:103D000089FD68060CD5607810B9012001F0B6F87D
:103D1000206928B1006918B18047002000F07AFDC1
:103D200028060ED5012001F0A9F8206948B1816963
:103D300039B1E84340F30020401C8847002000F0E0
:103D400069FDA80527D500F0EDFD042805D000F099
:103D5000E9FD052810D01EE034E01C4801F0E8FC25
:103D6000012001F08BF82069A8B1406898B1804724
:103D7000002000F050FD0EE01448183001F0D8FC8F
:103D8000012001F07BF8206928B1C06818B1804794
:103D9000002000F03FFDA80614D50C48183001F0B3
:103DA000C7FC607810B9012001F068F8206900288C
:103DB00008D0C068002805D08047BDE8F840002042
:103DC00000F028BDF8BD000010000020780200209F
:103DD0003C0100202DE9F0411D4617460E46804665
:103DE0000124FFF7EDFE10B10020BDE8F081404650
:103DF00000F0E8F8304601F0D3F8002000F05CF85D
:103E00000120FCF709FF01F0C4FB064606E000BFF5
:103E100000F0E3FDB84201DD002404E0304601F08B
:103E2000BFFBA842F4D300F0E3FA2046DDE7000030
:103E3000024901208870FFF70DBF0000100000202C
:103E400004480069002803D0C068002800D000475B
:103E5000704700001000002004480069002803D0CB
:103E60004068002800D00047704700001000002084
:103E700070B50025012000F0A5F8002001F0DCF865
:103E800000240120FCF7C8FE00F0A7FD00F00100AF
:103E9000A040641C0543E4B2202CF2D300F0A8FA41
:103EA000002000F0B7FC284670BD00F07EBE00F098
:103EB00084BE00F092BD000010B5044600234FF60A
:103EC000FF701A46014600F037FF34B12146094819
:103ED00001F0E3FB074801F0F1FB0748417811B11D
:103EE0006FF07F4001E0C0688001BDE8104001F044
:103EF000A3B80000900200201000002010B5044676
:103F000000234FF6FF701A46014600F015FF34B14A
:103F10002146094801F0C1FB074801F0CFFB0748E3
:103F2000417811B16FF07F4001E0C0688001BDE8C9
:103F3000104001F099B8000090020020100000200D
:103F400070B505460C46002340F201201A46014692
:103F500000F0F2FE00F024FD01460D48012914D0C6
:103F600004720B4800F0A0FF00222146284600F012
:103F700081FE0848816806483C3001F08EFBBDE8B0
:103F8000704003483C3001F099BBC473E9E700007E
:103F90003C0200201000002001F002B8074B084A44
:103FA000012807D0D079012807D11970117204486F
:103FB00000F07ABF1970D173F9E770471000002044
:103FC0003C02002010B50A4C012805D0002000F06A
:103FD000CDFF0020607010BD012000F0C7FF6178A8
:103FE00020788142F7D06070BDE8104000F002B840
:103FF0001300002070B504460B4804704470012083
:10400000FFF7E0FF4FF4E860451C24B1342101F0D4
:1040100079F9442103E0142101F074F924212846A0
:10402000BDE8704001F06EB9130000202DE9FF4F8C
:1040300017462DED028B83B08846DDE91592714D50
:1040400001461B98139E687008B1002014905FEA27
:10405000090001D02A7001E0FF2028706A4C4FF05F
:10406000000B04F128004FF0010A0290E9B1012988
:104070007CD1002001F05CF81498C0B200F077FE0B
:10408000624B84F828A0F9B284F8381013F808209D
:1040900084F83920089A504684F83A20B8F1000F85
:1040A0006FD0B8F1010F6ED06FE0002001F040F842
:1040B00084F828B00B20E76284F834004046FFF70C
:1040C00065FD84F835004FF6FF7084F800B000EA13
:1040D000C6006080042020711820607184F806B04A
:1040E00089F00100E07128782072179810B1F22051
:1040F000607201E084F809A084F80AA0002001F0B1
:1041000005F894F8280000B10120FFF75BFF029842
:1041100000F034FE3C4800F0C7FE3DA1D1E90001AB
:10412000CDE90001684601F00AF840F2FF1001F005
:1041300057F83846FCF778FA41EC100B53EC102B8B
:104140009FED350B51EC100BFCF7EEF99FED341B96
:1041500053EC112BFCF773F941EC180B1498FCF796
:1041600063FA53EC182BFCF76AF901E03FE008E032
:104170009FED2D1B53EC112BFCF761F9FCF761FA55
:1041800034E00B2F09D00C2F07D084F83BB02070FF
:10419000052905D0062903D007E084F83B00F6E79F
:1041A0000C2E02D20C20A08100E0A68184F80E9093
:1041B0002878E073179820741A9860740120FFF72C
:1041C00001FF029800F0DAFD0F4800F06DFE607C00
:1041D00040F23674012820460ED000F0E6FC40F094
:1041E0000401204601F08EF84FF6FF70E86003B03E
:1041F000BDEC028B00F01CB800F0D7FC20F00401ED
:10420000EFE70000100000203C020020807A000848
:10421000C194C10000000000000000000000F03F59
:1042200000000000000020400000000000408F401F
:104230001FBCBDE8E08F00F031BF00002DE9FF4F4B
:1042400083B010AC5FEA000C94E88306554CDDF8AF
:104250005C8004F128024FF0000640F6890B4FF015
:104260000105029203D0BCF1010F3ED13EE084F87B
:104270002860E0620B2084F834001846FFF786FCC3
:1042800084F83500059820634FF6FF70267000EA29
:10429000C70060800420207118206071A67189F029
:1042A0000100E071BAF1000F02D0F220607200E06C
:1042B0006572A572002000F029FF94F8280000B173
:1042C0000120FFF77FFE029800F058FD354800F00E
:1042D000EBFD35A1D1E90001CDE90001684600F010
:1042E0002EFF40F2FF1000F07BFF41E0DFF8C0C07E
:1042F00084F82850C2B284F838201CF803C084F82F
:1043000039C084F83A1013B1012B02D003E00B2816
:1043100009D00C2807D084F83B602570052A05D009
:10432000062A03D007E084F83B50F6E70C2F02D2B0
:104330000C20A08100E0A7811E4884F80E90007830
:10434000E07384F810A084F81180002000F0DEFEF5
:1043500094F8280000B10120FFF734FE029800F025
:104360000DFD104800F0A0FD94F83900062811D08A
:104370005C46584600F019FC40F00401204600F06D
:10438000C1FF049800F054FE0A491898886007B0ED
:1043900000F012B85C46584600F007FC20F004011B
:1043A000ECE700003C020020C194C10000000000C6
:1043B000807A00081000002030BCBDE8C08F0000EB
:1043C00070B514460D4600F0EBFD284600F030FEB7
:1043D00000F0D6FE4FF47A7004FB00F1034801F0C0
:1043E0005CF9BDE87040014801F068B9780200202E
:1043F00010B5042000F06EFEBDE810400220FCF76E
:104400000BBC002000F082BE00F048BC70B50D4629
:104410002DED0C8B01004FF000009FED6ADB6B4C23
:104420009FED6B8B7DD001297CD194F839006A49CE
:1044300000EB400094F8386001EB0010C6F10C016D
:1044400000EBC10010ED30ABA0891C34FCF7ECF898
:104450009FED621B53EC112BFBF742FF53EC1A2B21
:10446000FBF7EDFF41EC1B0BA07F00F00300001DEC
:10447000FCF7DAF841EC1C0BE07F1C3C00B1022099
:10448000301A8000FCF7BFF841EC190BE8007142CC
:1044900000EB8100217C00EB0110A17B012970D091
:1044A0000021401A1C30FCF7AEF853EC192BFCF736
:1044B0003BF841EC100B01F06BFC53EC1C2B51EC66
:1044C000100BFBF7BCFF41EC190B53EC182BFCF75E
:1044D000D1F803D2B0EE498AF0EE698A53EC1D2B75
:1044E00051EC180BFBF7FCFE53EC1A2BFBF7A7FF64
:1044F00041EC100B51EC1B0B53EC102BFBF7F0FEB7
:104500009FED381B53EC112BFBF7EAFE41EC100B2F
:1045100001F0CAFC00F076B851EC100BBDE8704019
:1045200001E002E04BE0FCF78CB8E06AFCF77CF8B5
:1045300041EC190B2846FCF777F841EC1A0B608820
:10454000617900EBD100FCF76FF841EC100BE079DA
:1045500090B19FED261B00BF53EC112B51EC100BBB
:10456000FBF7BEFE53EC1A2BFBF7BAFE41EC100B27
:10457000607A022806D007E0B0EE481AF0EE681A1A
:10458000EAE71AE09FED1B8B51EC100B53EC182B54
:10459000FBF7A6FE53EC1D2BFBF751FF53EC192B39
:1045A000FBF7C2FF9FED151B53EC112BFBF747FFE9
:1045B00041EC100B02F044FBACE7142171E700F072
:1045C00027B870BD00000000000020403C02002021
:1045D0000000000000000000280000200000000093
:1045E000000011402B8716D9CEF7EF3F00000000E6
:1045F0000000F03F0000000000000040000000004C
:1046000000408F40BDEC088BBDEC04CBFFF784BFAE
:10461000BDEC088BBDEC04CBFFF7D3BF00F072BE3E
:1046200000F076BEF8B515460E460B4600920446DD
:1046300000224FF4C05100F019F888B93346002227
:1046400080212046009500F079F848B933460022D1
:104650004FF4C0612046009500F008F8002804D00F
:10466000206E40F0200020660320F8BD2DE9F84FB1
:10467000994617460E4604460A9DFCF71FFC411B4F
:10468000A9EB0105FCF71AFC804629484FF4C06AE3
:104690000068C0EBC00000EB8000000D6843009094
:1046A0003FE0564501D107B9007BB9F1FF3F38D053
:1046B000FCF704FCA0EB0800A84203D215B1009857
:1046C00060B32CE02068416821F0E001416060683F
:1046D000B0F5827F0BD1A068B0F5004F02D0B0F5E5
:1046E000806F04D12068016821F040010160A06A58
:1046F000B0F5005F09D12068016821F40051016024
:104700002068016841F400510160012084F85D00D7
:10471000002084F85C00032000F00CB80025401E47
:104720000090206881683140B942BAD10020F3E797
:10473000DC00002018BCBDE8E08F00002DE9F84344
:104740001E46914688460446089DFCF7B7FB401B71
:10475000351AFCF7B3FB074625480068C0F3CB3099
:10476000684338E0701C37D0FCF7A8FBC01BA84298
:1047700003D215B1009860B32CE02068416821F0A5
:10478000E00141606068B0F5827F0BD1A068B0F5B0
:10479000004F02D0B0F5806F04D12068016821F08D
:1047A00040010160A06AB0F5005F09D1206801688E
:1047B00021F4005101602068016841F4005101605A
:1047C000012084F85D00002084F85C000320BDE82F
:1047D000F8830025401E00902068816838EA0100B7
:1047E00004D000214945BDD10020F0E70121F9E7BF
:1047F000DC000020704700224FF400714FF0904021
:10480000FEF7EABB012251024FF09040FEF7E4BBF5
:104810000020704770477047C0F380118901C0F3D2
:10482000401241EA4211C0F3001241EA0211C0F302
:10483000C00241EAC201C0F3800241EA8201C0F332
:10484000400241EA420108B500F0010001438DF841
:10485000001001226946892000F02BFD08BD0000F0
:10486000174908B5884204D9E1208DF80000E920F5
:104870001EE01449884204D9D7208DF80000DB20BF
:1048800016E01149884204D9C1208DF80000C520E6
:104890000EE00E49884204D975208DF80000812071
:1048A00006E00B49884205D96B208DF800006F2087
:1048B0008DF8010002226946982000F0FAFC08BD3C
:1048C00000E9A43580F8A9328044E52D000B6B1B6C
:1048D00040FC5419064810B5407808B1062803D1A9
:1048E00000F0A6FCFFF78EFFBDE8104000F094BC7E
:1048F0000800002008B5010A8DF800108DF80100AD
:1049000002226946104600F0D4FC08BD0020704722
:1049100008B502226946122000F01CF9BDF800001B
:1049200040BA08BD014840787047000008000020E8
:1049300038B5044603226946142000F00BF91748E5
:104940008178217041B1012916D014212046FBF74E
:1049500086FC0F20207038BD9DF8000020719DF866
:10496000010040424010A0719DF8020040424010FA
:1049700060710020A06038BD9DF8001049424910C8
:1049800021739DF90110891C891061739DF8021033
:1049900049424910A1734068206138BD08000020D9
:1049A000014880787047000008000020F8B50646EE
:1049B0000C4600208DF8000015466946204600F0A0
:1049C00019F82278AA4201D90120F8BD31469DF894
:1049D000000000F093F80020F8BD08B501226946F8
:1049E000152000F0B7F89DF80000404240F3470062
:1049F00008BD000038B50D46044602226946132062
:104A000000F0A8F809488178012902D1C07801286E
:104A100006D09DF8000020709DF80100287038BD78
:104A200040F2027000F0C1F8F5E700000800002035
:104A300010B5044600F0F0F8204600F057F800F0FA
:104A4000F7FB002000F062FBFFF7E2FE40B1FFF74A
:104A50005DFF8101012000F05CF97F20FFF7DCFEA3
:104A6000012000F04FF902490120487010BD0000FC
:104A7000080000207047000030B585B0142168465A
:104A8000FBF7EDFB17480024CDE901040320164D88
:104A900003906A4610212846FEF730FA01946A46D0
:104AA000082128460294FEF729FA0120CDE90104E5
:104AB00005024FF090446A4629462046FEF71EFA4A
:104AC000012229462046FEF787FA6D006A462946EC
:104AD0002046FEF713FA002229462046FEF77CFA0C
:104AE00005B030BD0000111000040048034600224C
:104AF00010210148FEF752BA000400482DE9F041A8
:104B000015460E460446FFF7E5FE4FF480774FF05A
:104B10009048002239464046FEF75EFA1E20FEF716
:104B20003FFC2046FEF73CFC0020FEF739FC002449
:104B300005E00020FEF734FC3055641CA4B2AC4202
:104B4000F7D3012239464046FEF746FABDE8F04168
:104B500000F062BB2DE9F04715460F460446FFF70B
:104B6000B9FE4FF480784FF0904900224146484604
:104B7000FEF732FA2046FEF713FC0020FEF710FC89
:104B8000C6B2002405E00020FEF70AFC3855641C7C
:104B9000A4B2AC42F7D3012241464846FEF71CFAC4
:104BA00000F03AFB3046BDE8F08708B501226946BF
:104BB00000F003F89DF8000008BD2DE9F04115460E
:104BC0000E460446FFF786FE4FF480774FF090487C
:104BD000002239464046FEF7FFF91D20FEF7E0FBB4
:104BE000200AFEF7DDFBE0B2FEF7DAFB0020FEF75D
:104BF000D7FB002405E00020FEF7D2FB3055641CF3
:104C0000A4B2AC42F7D3012239464046FEF7E4F99C
:104C1000BDE8F04100F000BB30B585B01421684616
:104C2000FBF71DFB0120019000200324CDE90204C5
:104C30000A20FBF7F1FF4FF090456A460121284614
:104C4000FEF75CF9002201212846FEF7C5F9142081
:104C5000FBF7E2FF6A46012128460194FEF74EF970
:104C6000012211462846FEF7B7F90A20FBF7D4FFC8
:104C700005B030BD10B5144600F086F92046BDE8F9
:104C8000104000F065BA08B502228DF800008DF8DA
:104C9000011069468F2000F00CFB08BD10B5002202
:104CA0001146C52000F005FB01490720487010BDE2
:104CB0000800002008B5010A8DF800108DF80100E9
:104CC00005488078002805D10222694640F2BE607E
:104CD00000F01EFB08BD00000800002008B5010A16
:104CE0008DF800108DF8010005488078002805D166
:104CF0000222694640F2BC6000F00AFB08BD0000D9
:104D00000800002001B5012269469D2000F0D1FA7B
:104D100008BD08B500F007008DF80000080C8DF8FC
:104D20000100080A8DF802008DF80310042269467C
:104D3000972000F0BEFA08BD1CB5040A8DF80040AB
:104D40008DF80100080A8DF80200100A8DF80400A1
:104D50008DF80520180A8DF806008DF8031008223A
:104D60008DF807306946104600F0A3FA1CBD01B566
:104D700001226946A02000F09CFA08BD30B5044627
:104D80002DED028B83B000203349009001902078F4
:104D90008978884201D000F0E9F82078B0B1012884
:104DA00010D1207C8DF80000607C8DF80100A07C83
:104DB0008DF80200E07C04228DF8030069468B2008
:104DC00000F077FA03B0BDEC028B30BD08256068B7
:104DD000FBF72AFC41EC100B9FED208B53EC102BC2
:104DE00051EC180BFBF7A0FB9FED1E1B53EC112B96
:104DF000FBF725FBFBF725FC010C8DF80010010AE1
:104E00008DF801108DF80200207B8DF80300607B87
:104E10008DF804009FED151B9FED160B01F0D0F8E7
:104E200053EC102B51EC180BFBF77EFB41EC180BED
:104E3000A068FBF7F9FB53EC182BFBF775FBFBF7AE
:104E400000FC010C8DF80510010A8DF806108DF894
:104E500007002A46B2E7000008000020000000001A
:104E600080847E41000000000000404000000000FF
:104E70000000394000000000000000400149487077
:104E8000704700000800002008B58DF800008DF87C
:104E900001108DF802208DF8033004226946952018
:104EA00000F007FA08BD00003EB5044600202E4D74
:104EB0000090019002902078A978884201D000F0FB
:104EC00055F82078D0B1012817D1A0890622010A0F
:104ED0008DF800108DF80100A07BE8708DF80200BD
:104EE000E07B8DF80300207C8DF80400607C8DF859
:104EF000050069468C2000F0DCF93EBD607AF1289F
:104F000002D0F2280AD012E04FF6FF70FFF7E6FE5B
:104F100048F20500FFF7CEFE022008E041F60F50F0
:104F2000FFF7DCFE41F22100FFF7C4FE0620618896
:104F30000922090A8DF80010A1788DF80110217955
:104F40008DF8021061798DF80310A1798DF80410A5
:104F5000E1798DF80510217A8DF806108DF807009B
:104F6000A07A8DF80800C4E70800002001B50549C3
:104F70009DF800000122887069468A2000F099F9A6
:104F800008BD0000080000200A460146002000F08D
:104F900068B901B501226946962000F08AF908BD7A
:104FA00030B51C4C05462DED028B81B0207820B920
:104FB0002846FFF755FC012020709FED171B9FED41
:104FC000180B00F0FDFF53EC102B9FED170B51EC6D
:104FD000100BFBF7A9FA41EC180B2846FBF724FB52
:104FE00053EC182BFBF7A0FAFBF72BFB010E8DF807
:104FF0000010010C8DF80110010A8DF802108DF8D7
:10500000030004226946862000F053F901B0BDEC8C
:10501000028B30BD08000020000000000000394075
:1050200000000000000000400000000080847E417D
:10503000022100F0AAB800000A4A08B50521517003
:10504000010C8DF80010010A8DF801108DF8020096
:1050500003226946822000F02CF90120FFF7DAFBD9
:1050600008BD00000800002038B50B4904460520A3
:105070004870962140F6AC0000F044F9200C8DF801
:105080000000200A8DF801008DF8024003226946D5
:10509000822000F00EF938BD080000201CB5020C7B
:1050A0008DF80020020A8DF801208DF80200080C0E
:1050B0008DF80300080A8DF804008DF8051006220B
:1050C0006946942000F0F5F80149062048701CBD9F
:1050D0000800002038B50446FFF78DFBC4F38000BC
:1050E0008000C4F3400140EA410004F0010108439C
:1050F0008DF8000001226946842000F0DAF80249A8
:105100000020487038BD00000800002001B50122D1
:105110006946802000F0CDF89DF80010034811B1D9
:105120000221417008BD0121FBE7000008000020BA
:1051300001B5012269469F2000F0BBF808BD10B5FB
:10514000014608224FF4D86000F0E2F8002010BDBC
:105150000A4A08B504215170010C8DF80010010AAB
:105160008DF801108DF8020003226946832000F0BB
:10517000A0F80120FFF74FFB08BD00000800002049
:1051800000221146D12000F094B8F8B5044640F64C
:10519000D8060D463046FFF708FD40F01E013046A8
:1051A00000F0B0F80123002207210420FFF76CFE75
:1051B000162C01DD162404E06FF00800844200DAAA
:1051C0000446382140F6E70000F09CF88DF80040D6
:1051D0008DF80150022269468E2000F06AF8F8BD71
:1051E00070B504460B488078002812D14FF4D7657B
:1051F0002846FFF7DAFC00F0FE00C4F3002101436B
:10520000284600F07FF8E1B2681CBDE8704000F06D
:1052100079B870BD0800002010B5044C0821204664
:10522000FDF7BAFE0128F9D010BD000000040048C7
:1052300070B54FF480744FF0904500222146284607
:10524000FDF7CAFEC020FEF7ABF80020FEF7A8F875
:10525000012221462846FDF7BFFEBDE87040FFF75A
:10526000DBBF2DE9F04115460E460446FFF732FB41
:105270004FF480774FF09048002239464046FDF7C2
:10528000ABFE0E20FEF78CF82046FEF789F80024CE
:1052900004E0305DFEF784F8641CA4B2AC42F8D39D
:1052A000012239464046FDF797FEBDE8F041FFF781
:1052B000B3BF2DE9F04715460E460746FFF70AFB38
:1052C0004FF480784FF09049002241464846FDF760
:1052D00083FE3846FEF764F8002404E0305DFEF7F4
:1052E0005FF8641CA4B2AC42F8D3012241464846A0
:1052F000FDF772FE842F03D0BDE8F047FFF78CBFA7
:10530000BDE8F08713B5012201A900F001F81CBD2A
:105310002DE9F04115460E460446FFF7DBFA4FF43F
:1053200080774FF09048002239464046FDF754FE02
:105330000D20FEF735F8200AFEF732F8E0B2FEF74E
:105340002FF8002404E0305DFEF72AF8641CA4B2B4
:10535000AC42F8D3012239464046FDF73DFEBDE898
:10536000F041FFF759BFFBF7AFBD000010B5B8B073
:10537000442122A8FAF773FF142133A8FAF76FFF2C
:1053800088216846FAF76BFFFBF74EFE1A4850F883
:10539000901F21F018010160052022904FF4803009
:1053A0000121CDE92301022003242C90CDE92D41D8
:1053B00014212F910721CDE93010329022A8FCF75B
:1053C00019F90F20CDE933040024359436940421D3
:1053D00033A83794FCF708F8084800904012219051
:1053E0000E9410946846FBF727FE4FF40070FBF70D
:1053F000DFFD38B010BD00000010024005000200C3
:105400000D48016841F4700101600C48016841F0E9
:1054100001010160002181600268094B1A400260AD
:105420008214C260026822F4802202608161024913
:10543000C00380390860704788ED00E0001002402A
:10544000FFFFF6EA0148FDF7EEB9000098050020DD
:105450000148FDF7E8B90000E40500200148FDF728
:10546000E2B90000300600202DE9F0470268264B23
:10547000264D274E274F284C4FF0804A984209D09E
:10548000504507D0A84205D0B04203D0B84201D061
:10549000A04204D122F0700C4A6842EA0C02DFF804
:1054A0007CC0DFF87C80DFF87C9098420FD05045BC
:1054B0000DD0A8420BD0B04209D0B84207D0A042CC
:1054C00005D0604503D0404501D0484503D122F4C2
:1054D0004075CA682A434D6922F080022A4302605F
:1054E0008A68C2620A688262984207D0A04205D0E8
:1054F000604503D0404501D0484501D109690163A9
:1055000001214161BDE8F087002C0140000400400A
:1055100000080040000C0040003401400040014001
:10552000004401400048014010B5846842EA03226B
:1055300024F47F440A432243826010BD826822F033
:1055400070020A4342F007018160704710B5036A98
:10555000046A24F001040462846924F0F00444EA3B
:10556000021423F00A020A438461026210BD10B5DE
:10557000036A23F0100303628369046A23F470430F
:1055800043EA023224F0A00343EA0111826101627E
:1055900010BD10B5FDF7AAFDBDE81040FDF7ECBE4B
:1055A00070B505000AD0FDF7A1FD04462846FDF7B9
:1055B000EEFE201ABDE87040FDF7DEBE002070BD93
:1055C00000220260426002724272C0E9031242612C
:1055D00070470000044A116809B100234B72416111
:1055E000106000F043B80000B800002070B5FDF76F
:1055F00069FD0446FDF70CFE031B1B4C20680028C8
:1056000031D00246002507E00E689E4202D9F61A04
:105610000E6000E00D60526951690029F4D1002844
:1056200021D0416921600572C16801B9FEE70069B6
:1056300088472068002816D0FDF74AFD01462068FB
:105640000268914206D9416921600572C16800294A
:10565000EDD1FEE7002806D0417A002903D1BDE84C
:10566000704000F003B870BDB800002070B504466B
:10567000FDF726FD054601206072FDF729FD216832
:105680002844884201D8084603E0FDF721FD28445C
:105690002060BDE87040FDF769BD70B5054608465D
:1056A000FDF775FE0446284600F042F8FDF708FDB8
:1056B000844200D204462C606C6070BD2DE9F0413C
:1056C0000400EFF3108572B62CD0184F0122386811
:1056D000014602E0A04225D040690028FAD1606866
:1056E000206000262272667261B1FDF7F1FC21682C
:1056F0000144216038680268914206D22046FFF7D3
:1057000069FF0FE0FDF784FDF8E7416941B12268C8
:105710000B689A4201D90846F7E74461616101E0EC
:105720004461666185F31088BDE8F081B80000200F
:1057300070B5EFF3108572B6144C21680A1E21D0A3
:1057400000B3002606720B46814219D1487A01281F
:1057500003D0586950B1206014E04E72586918B1F6
:105760002060FFF783FF0DE0FDF7EEFD266009E006
:10577000814203D148695061002803E00A46496923
:105780000029F5D185F3108870BD0000B800002015
:1057900090F82410C90706D001684A68836A22F489
:1057A00000321A434A6090F82410890706D5016830
:1057B0004A68C36A22F480321A434A6090F824107F
:1057C000490706D501684A68036B22F480221A4310
:1057D0004A6090F82410090706D501684A68436BAF
:1057E00022F400421A434A6090F82410C90606D5F4
:1057F00001688A68836B22F480521A438A6090F8A9
:105800002410890606D501688A68C36B22F4005209
:105810001A438A6090F82410490611D501684A6835
:10582000036C22F480121A434A60016CB1F5801FA8
:1058300006D101684A68436C22F4C0021A434A60E8
:1058400090F82410090606D501684A68806C22F495
:10585000002202434A607047F8B500260446C66736
:10586000FBF72CFB0546206800686FF07E470007B9
:1058700008D52B4600224FF400112046009700F077
:10588000A5F960B92068006840070AD52B460022B8
:105890004FF480012046009700F098F908B10320EA
:1058A000F8BD20206067A06784F870600020F8BD14
:1058B00010B5806A0021A0F85A10A0F85210FDF728
:1058C000DCF810BD70B5846A606FA56F21688968C7
:1058D0004FF00006090606D5212804D1A4F852602D
:1058E000204600F045F820688068400606D5222D45
:1058F00004D1A4F85A60204600F02BF8E06F40F085
:105900001000E0672046FDF7B8F870BD10B50146FD
:10591000806A09680968890613D40021A0F85A1022
:1059200001680A6822F480720A6001688A6822F0BD
:1059300001028A6001688A6822F040028A602021A0
:105940008167FDF765FA10BD10B5806AFDF761FA51
:1059500010BD01680A6822F490720A6001688A68C2
:1059600022F001028A6020218167002101667047D0
:1059700001680A6822F0C0020A602021416770476E
:105980002DE9F0410446016880682269E36910430B
:10599000626900251A431043824F0A68824B1A40FD
:1059A00002430A6020684168E26821F440511143D3
:1059B00041602168A069B94201D0226A10438A6817
:1059C00022F4306202438A607849226878488A4229
:1059D0000DD1D0F8880010F0030006D0012866D061
:1059E000022854D0032851D163E001204FE07149CF
:1059F0008A420BD1D0F8880010F00C0047D0042860
:105A000045D0082851D00C2840D152E06A498A423A
:105A10000BD1D0F8880010F0300038D0102846D0D4
:105A2000202842D0302831D143E064498A420BD14A
:105A3000D0F8880010F0C00029D0402837D0802846
:105A400033D0C02822D134E05D498A420ED1D0F84B
:105A5000880010F440701AD0B0F5807F27D0B0F5E0
:105A6000007F22D0B0F5407F10D122E0BA420DD1A4
:105A7000D0F8880010F4406009D0B0F5806F16D0DF
:105A8000B0F5006F11D0B0F5406F12D010204D4B23
:105A900000264FF40041BA422ED160B1022813D043
:105AA00004280BD0082874D10DE00220EFE7042071
:105AB000EDE70820EBE7FBF727FD01E0FBF748FDEA
:105AC000030001D169E00B46626802EB4200984294
:105AD0005FD8B3EB023F5CD8190E180273084FEA87
